{
  "contractName": "HiringPlatform",
  "abi": [
    {
      "anonymous": false,
      "inputs": [
        {
          "indexed": true,
          "internalType": "address",
          "name": "employee",
          "type": "address"
        },
        {
          "indexed": false,
          "internalType": "string",
          "name": "name",
          "type": "string"
        }
      ],
      "name": "EmployeeRegistered",
      "type": "event"
    },
    {
      "anonymous": false,
      "inputs": [
        {
          "indexed": true,
          "internalType": "address",
          "name": "employer",
          "type": "address"
        },
        {
          "indexed": false,
          "internalType": "string",
          "name": "name",
          "type": "string"
        }
      ],
      "name": "EmployerRegistered",
      "type": "event"
    },
    {
      "inputs": [
        {
          "internalType": "address",
          "name": "",
          "type": "address"
        }
      ],
      "name": "employees",
      "outputs": [
        {
          "internalType": "string",
          "name": "name",
          "type": "string"
        },
        {
          "internalType": "string",
          "name": "education",
          "type": "string"
        },
        {
          "internalType": "uint256",
          "name": "marks",
          "type": "uint256"
        }
      ],
      "stateMutability": "view",
      "type": "function",
      "constant": true
    },
    {
      "inputs": [
        {
          "internalType": "address",
          "name": "",
          "type": "address"
        }
      ],
      "name": "employers",
      "outputs": [
        {
          "internalType": "string",
          "name": "name",
          "type": "string"
        }
      ],
      "stateMutability": "view",
      "type": "function",
      "constant": true
    },
    {
      "inputs": [
        {
          "internalType": "string",
          "name": "_name",
          "type": "string"
        }
      ],
      "name": "registerEmployer",
      "outputs": [],
      "stateMutability": "nonpayable",
      "type": "function"
    },
    {
      "inputs": [
        {
          "internalType": "string",
          "name": "_rating",
          "type": "string"
        }
      ],
      "name": "addEmployerRating",
      "outputs": [],
      "stateMutability": "nonpayable",
      "type": "function"
    },
    {
      "inputs": [
        {
          "internalType": "string",
          "name": "_name",
          "type": "string"
        },
        {
          "internalType": "string",
          "name": "_education",
          "type": "string"
        },
        {
          "internalType": "uint256",
          "name": "_marks",
          "type": "uint256"
        }
      ],
      "name": "registerEmployee",
      "outputs": [],
      "stateMutability": "nonpayable",
      "type": "function"
    },
    {
      "inputs": [
        {
          "internalType": "string",
          "name": "_rating",
          "type": "string"
        }
      ],
      "name": "addEmployeeRating",
      "outputs": [],
      "stateMutability": "nonpayable",
      "type": "function"
    },
    {
      "inputs": [
        {
          "internalType": "string",
          "name": "_project",
          "type": "string"
        }
      ],
      "name": "addCompletedProject",
      "outputs": [],
      "stateMutability": "nonpayable",
      "type": "function"
    },
    {
      "inputs": [
        {
          "internalType": "address",
          "name": "_employer",
          "type": "address"
        }
      ],
      "name": "getEmployerInfo",
      "outputs": [
        {
          "components": [
            {
              "internalType": "string",
              "name": "name",
              "type": "string"
            },
            {
              "internalType": "string[]",
              "name": "previousEmployeeRatings",
              "type": "string[]"
            },
            {
              "internalType": "string[]",
              "name": "successfulProjects",
              "type": "string[]"
            }
          ],
          "internalType": "struct HiringPlatform.Employer",
          "name": "",
          "type": "tuple"
        }
      ],
      "stateMutability": "view",
      "type": "function",
      "constant": true
    },
    {
      "inputs": [
        {
          "internalType": "address",
          "name": "_employee",
          "type": "address"
        }
      ],
      "name": "getEmployeeInfo",
      "outputs": [
        {
          "components": [
            {
              "internalType": "string",
              "name": "name",
              "type": "string"
            },
            {
              "internalType": "string",
              "name": "education",
              "type": "string"
            },
            {
              "internalType": "uint256",
              "name": "marks",
              "type": "uint256"
            },
            {
              "internalType": "string[]",
              "name": "previousEmployerRatings",
              "type": "string[]"
            },
            {
              "internalType": "string[]",
              "name": "completedProjects",
              "type": "string[]"
            }
          ],
          "internalType": "struct HiringPlatform.Employee",
          "name": "",
          "type": "tuple"
        }
      ],
      "stateMutability": "view",
      "type": "function",
      "constant": true
    }
  ],
  "bytecode": "0x608060405234801561001057600080fd5b506118be806100206000396000f3fe608060405234801561001057600080fd5b50600436106100935760003560e01c80635ac09b2b116100665780635ac09b2b1461011c57806375b0c3701461014c578063bdb42d5314610168578063bf1629d514610198578063d0678947146101b457610093565b80630be435bd146100985780631e4f217f146100c85780633b417cd6146100e45780634009212814610100575b600080fd5b6100b260048036038101906100ad919061115e565b6101e6565b6040516100bf9190611549565b60405180910390f35b6100e260048036038101906100dd91906111c8565b61028c565b005b6100fe60048036038101906100f99190611187565b610465565b005b61011a60048036038101906101159190611187565b61059c565b005b6101366004803603810190610131919061115e565b6106aa565b6040516101439190611630565b60405180910390f35b61016660048036038101906101619190611187565b6109e3565b005b610182600480360381019061017d919061115e565b610af3565b60405161018f9190611652565b60405180910390f35b6101b260048036038101906101ad9190611187565b610d8f565b005b6101ce60048036038101906101c9919061115e565b610e9f565b6040516101dd9392919061156b565b60405180910390f35b6000602052806000526040600020600091509050806000018054610209906117b9565b80601f0160208091040260200160405190810160405280929190818152602001828054610235906117b9565b80156102825780601f1061025757610100808354040283529160200191610282565b820191906000526020600020905b81548152906001019060200180831161026557829003601f168201915b5050505050905081565b6000600160003373ffffffffffffffffffffffffffffffffffffffff1673ffffffffffffffffffffffffffffffffffffffff16815260200190815260200160002060000180546102db906117b9565b90501461031d576040517f08c379a000000000000000000000000000000000000000000000000000000000815260040161031490611610565b60405180910390fd5b82600160003373ffffffffffffffffffffffffffffffffffffffff1673ffffffffffffffffffffffffffffffffffffffff1681526020019081526020016000206000019080519060200190610373929190610fd9565b5081600160003373ffffffffffffffffffffffffffffffffffffffff1673ffffffffffffffffffffffffffffffffffffffff16815260200190815260200160002060010190805190602001906103ca929190610fd9565b5080600160003373ffffffffffffffffffffffffffffffffffffffff1673ffffffffffffffffffffffffffffffffffffffff168152602001908152602001600020600201819055503373ffffffffffffffffffffffffffffffffffffffff167f7657087667750afe9a0e3b2a3d756e2a2b4f696c3d71141eb99420bcc2f1e231846040516104589190611549565b60405180910390a2505050565b60008060003373ffffffffffffffffffffffffffffffffffffffff1673ffffffffffffffffffffffffffffffffffffffff16815260200190815260200160002060000180546104b3906117b9565b9050146104f5576040517f08c379a00000000000000000000000000000000000000000000000000000000081526004016104ec906115d0565b60405180910390fd5b806000803373ffffffffffffffffffffffffffffffffffffffff1673ffffffffffffffffffffffffffffffffffffffff168152602001908152602001600020600001908051906020019061054a929190610fd9565b503373ffffffffffffffffffffffffffffffffffffffff167f6c0e8aabac6898602e5264c9a24b2394d9895a70bd2f4c44c8ca0fcfcec6477f826040516105919190611549565b60405180910390a250565b60008060003373ffffffffffffffffffffffffffffffffffffffff1673ffffffffffffffffffffffffffffffffffffffff16815260200190815260200160002060000180546105ea906117b9565b90501161062c576040517f08c379a0000000000000000000000000000000000000000000000000000000008152600401610623906115b0565b60405180910390fd5b6000803373ffffffffffffffffffffffffffffffffffffffff1673ffffffffffffffffffffffffffffffffffffffff168152602001908152602001600020600101819080600181540180825580915050600190039060005260206000200160009091909190915090805190602001906106a6929190610fd9565b5050565b6106b261105f565b600160008373ffffffffffffffffffffffffffffffffffffffff1673ffffffffffffffffffffffffffffffffffffffff1681526020019081526020016000206040518060a001604052908160008201805461070c906117b9565b80601f0160208091040260200160405190810160405280929190818152602001828054610738906117b9565b80156107855780601f1061075a57610100808354040283529160200191610785565b820191906000526020600020905b81548152906001019060200180831161076857829003601f168201915b5050505050815260200160018201805461079e906117b9565b80601f01602080910402602001604051908101604052809291908181526020018280546107ca906117b9565b80156108175780601f106107ec57610100808354040283529160200191610817565b820191906000526020600020905b8154815290600101906020018083116107fa57829003601f168201915b505050505081526020016002820154815260200160038201805480602002602001604051908101604052809291908181526020016000905b828210156108fb57838290600052602060002001805461086e906117b9565b80601f016020809104026020016040519081016040528092919081815260200182805461089a906117b9565b80156108e75780601f106108bc576101008083540402835291602001916108e7565b820191906000526020600020905b8154815290600101906020018083116108ca57829003601f168201915b50505050508152602001906001019061084f565b50505050815260200160048201805480602002602001604051908101604052809291908181526020016000905b828210156109d4578382906000526020600020018054610947906117b9565b80601f0160208091040260200160405190810160405280929190818152602001828054610973906117b9565b80156109c05780601f10610995576101008083540402835291602001916109c0565b820191906000526020600020905b8154815290600101906020018083116109a357829003601f168201915b505050505081526020019060010190610928565b50505050815250509050919050565b6000600160003373ffffffffffffffffffffffffffffffffffffffff1673ffffffffffffffffffffffffffffffffffffffff1681526020019081526020016000206000018054610a32906117b9565b905011610a74576040517f08c379a0000000000000000000000000000000000000000000000000000000008152600401610a6b906115f0565b60405180910390fd5b600160003373ffffffffffffffffffffffffffffffffffffffff1673ffffffffffffffffffffffffffffffffffffffff16815260200190815260200160002060030181908060018154018082558091505060019003906000526020600020016000909190919091509080519060200190610aef929190610fd9565b5050565b610afb61108e565b6000808373ffffffffffffffffffffffffffffffffffffffff1673ffffffffffffffffffffffffffffffffffffffff168152602001908152602001600020604051806060016040529081600082018054610b54906117b9565b80601f0160208091040260200160405190810160405280929190818152602001828054610b80906117b9565b8015610bcd5780601f10610ba257610100808354040283529160200191610bcd565b820191906000526020600020905b815481529060010190602001808311610bb057829003601f168201915b5050505050815260200160018201805480602002602001604051908101604052809291908181526020016000905b82821015610ca7578382906000526020600020018054610c1a906117b9565b80601f0160208091040260200160405190810160405280929190818152602001828054610c46906117b9565b8015610c935780601f10610c6857610100808354040283529160200191610c93565b820191906000526020600020905b815481529060010190602001808311610c7657829003601f168201915b505050505081526020019060010190610bfb565b50505050815260200160028201805480602002602001604051908101604052809291908181526020016000905b82821015610d80578382906000526020600020018054610cf3906117b9565b80601f0160208091040260200160405190810160405280929190818152602001828054610d1f906117b9565b8015610d6c5780601f10610d4157610100808354040283529160200191610d6c565b820191906000526020600020905b815481529060010190602001808311610d4f57829003601f168201915b505050505081526020019060010190610cd4565b50505050815250509050919050565b6000600160003373ffffffffffffffffffffffffffffffffffffffff1673ffffffffffffffffffffffffffffffffffffffff1681526020019081526020016000206000018054610dde906117b9565b905011610e20576040517f08c379a0000000000000000000000000000000000000000000000000000000008152600401610e17906115f0565b60405180910390fd5b600160003373ffffffffffffffffffffffffffffffffffffffff1673ffffffffffffffffffffffffffffffffffffffff16815260200190815260200160002060040181908060018154018082558091505060019003906000526020600020016000909190919091509080519060200190610e9b929190610fd9565b5050565b6001602052806000526040600020600091509050806000018054610ec2906117b9565b80601f0160208091040260200160405190810160405280929190818152602001828054610eee906117b9565b8015610f3b5780601f10610f1057610100808354040283529160200191610f3b565b820191906000526020600020905b815481529060010190602001808311610f1e57829003601f168201915b505050505090806001018054610f50906117b9565b80601f0160208091040260200160405190810160405280929190818152602001828054610f7c906117b9565b8015610fc95780601f10610f9e57610100808354040283529160200191610fc9565b820191906000526020600020905b815481529060010190602001808311610fac57829003601f168201915b5050505050908060020154905083565b828054610fe5906117b9565b90600052602060002090601f016020900481019282611007576000855561104e565b82601f1061102057805160ff191683800117855561104e565b8280016001018555821561104e579182015b8281111561104d578251825591602001919060010190611032565b5b50905061105b91906110af565b5090565b6040518060a0016040528060608152602001606081526020016000815260200160608152602001606081525090565b60405180606001604052806060815260200160608152602001606081525090565b5b808211156110c85760008160009055506001016110b0565b5090565b60006110df6110da846116a5565b611674565b9050828152602081018484840111156110f757600080fd5b611102848285611777565b509392505050565b6000813590506111198161185a565b92915050565b600082601f83011261113057600080fd5b81356111408482602086016110cc565b91505092915050565b60008135905061115881611871565b92915050565b60006020828403121561117057600080fd5b600061117e8482850161110a565b91505092915050565b60006020828403121561119957600080fd5b600082013567ffffffffffffffff8111156111b357600080fd5b6111bf8482850161111f565b91505092915050565b6000806000606084860312156111dd57600080fd5b600084013567ffffffffffffffff8111156111f757600080fd5b6112038682870161111f565b935050602084013567ffffffffffffffff81111561122057600080fd5b61122c8682870161111f565b925050604061123d86828701611149565b9150509250925092565b600061125383836112d0565b905092915050565b6000611266826116e5565b6112708185611708565b935083602082028501611282856116d5565b8060005b858110156112be578484038952815161129f8582611247565b94506112aa836116fb565b925060208a01995050600181019050611286565b50829750879550505050505092915050565b60006112db826116f0565b6112e58185611719565b93506112f5818560208601611786565b6112fe81611849565b840191505092915050565b6000611314826116f0565b61131e818561172a565b935061132e818560208601611786565b61133781611849565b840191505092915050565b600061134f60188361172a565b91507f456d706c6f796572206e6f7420726567697374657265642e00000000000000006000830152602082019050919050565b600061138f601c8361172a565b91507f456d706c6f79657220616c726561647920726567697374657265642e000000006000830152602082019050919050565b60006113cf60188361172a565b91507f456d706c6f796565206e6f7420726567697374657265642e00000000000000006000830152602082019050919050565b600061140f601c8361172a565b91507f456d706c6f79656520616c726561647920726567697374657265642e000000006000830152602082019050919050565b600060a083016000830151848203600086015261145f82826112d0565b9150506020830151848203602086015261147982826112d0565b915050604083015161148e604086018261152b565b50606083015184820360608601526114a6828261125b565b915050608083015184820360808601526114c0828261125b565b9150508091505092915050565b600060608301600083015184820360008601526114ea82826112d0565b91505060208301518482036020860152611504828261125b565b9150506040830151848203604086015261151e828261125b565b9150508091505092915050565b6115348161176d565b82525050565b6115438161176d565b82525050565b600060208201905081810360008301526115638184611309565b905092915050565b600060608201905081810360008301526115858186611309565b905081810360208301526115998185611309565b90506115a8604083018461153a565b949350505050565b600060208201905081810360008301526115c981611342565b9050919050565b600060208201905081810360008301526115e981611382565b9050919050565b60006020820190508181036000830152611609816113c2565b9050919050565b6000602082019050818103600083015261162981611402565b9050919050565b6000602082019050818103600083015261164a8184611442565b905092915050565b6000602082019050818103600083015261166c81846114cd565b905092915050565b6000604051905081810181811067ffffffffffffffff8211171561169b5761169a61181a565b5b8060405250919050565b600067ffffffffffffffff8211156116c0576116bf61181a565b5b601f19601f8301169050602081019050919050565b6000819050602082019050919050565b600081519050919050565b600081519050919050565b6000602082019050919050565b600082825260208201905092915050565b600082825260208201905092915050565b600082825260208201905092915050565b60006117468261174d565b9050919050565b600073ffffffffffffffffffffffffffffffffffffffff82169050919050565b6000819050919050565b82818337600083830152505050565b60005b838110156117a4578082015181840152602081019050611789565b838111156117b3576000848401525b50505050565b600060028204905060018216806117d157607f821691505b602082108114156117e5576117e46117eb565b5b50919050565b7f4e487b7100000000000000000000000000000000000000000000000000000000600052602260045260246000fd5b7f4e487b7100000000000000000000000000000000000000000000000000000000600052604160045260246000fd5b6000601f19601f8301169050919050565b6118638161173b565b811461186e57600080fd5b50565b61187a8161176d565b811461188557600080fd5b5056fea2646970667358221220eb3cde9147e18b6051e6db87384f477b432bb9453ec1e9f236d193dd4709509b64736f6c63430008000033",
  "immutableReferences": {},
  "source": "// SPDX-License-Identifier: MIT\r\npragma solidity ^0.8.0;\r\n\r\ncontract HiringPlatform {\r\n    struct Employer {\r\n        string name;\r\n        string[] previousEmployeeRatings;\r\n        string[] successfulProjects;\r\n    }\r\n\r\n    struct Employee {\r\n        string name;\r\n        string education;\r\n        uint256 marks;\r\n        string[] previousEmployerRatings;\r\n        string[] completedProjects;\r\n    }\r\n\r\n    mapping(address => Employer) public employers;\r\n    mapping(address => Employee) public employees;\r\n\r\n    event EmployerRegistered(address indexed employer, string name);\r\n    event EmployeeRegistered(address indexed employee, string name);\r\n\r\n    function registerEmployer(string memory _name) public {\r\n        require(bytes(employers[msg.sender].name).length == 0, \"Employer already registered.\");\r\n        employers[msg.sender].name = _name;\r\n        emit EmployerRegistered(msg.sender, _name);\r\n    }\r\n\r\n    function addEmployerRating(string memory _rating) public {\r\n        require(bytes(employers[msg.sender].name).length > 0, \"Employer not registered.\");\r\n        employers[msg.sender].previousEmployeeRatings.push(_rating);\r\n    }\r\n\r\n    function registerEmployee(string memory _name, string memory _education, uint256 _marks) public {\r\n        require(bytes(employees[msg.sender].name).length == 0, \"Employee already registered.\");\r\n        employees[msg.sender].name = _name;\r\n        employees[msg.sender].education = _education;\r\n        employees[msg.sender].marks = _marks;\r\n        emit EmployeeRegistered(msg.sender, _name);\r\n    }\r\n\r\n    function addEmployeeRating(string memory _rating) public {\r\n        require(bytes(employees[msg.sender].name).length > 0, \"Employee not registered.\");\r\n        employees[msg.sender].previousEmployerRatings.push(_rating);\r\n    }\r\n\r\n    function addCompletedProject(string memory _project) public {\r\n        require(bytes(employees[msg.sender].name).length > 0, \"Employee not registered.\");\r\n        employees[msg.sender].completedProjects.push(_project);\r\n    }\r\n\r\n    function getEmployerInfo(address _employer) public view returns (Employer memory) {\r\n        return employers[_employer];\r\n    }\r\n\r\n    function getEmployeeInfo(address _employee) public view returns (Employee memory) {\r\n        return employees[_employee];\r\n    }\r\n}\r\n",
  "sourcePath": "C:\\Users\\Yash\\hiring-platform\\contracts\\HiringPlatform.sol",
  "compiler": {
    "name": "solc",
    "version": "0.8.0+commit.c7dfd78e.Emscripten.clang"
  },
  "schemaVersion": "3.4.16",
  "updatedAt": "2024-10-03T13:52:24.089Z",
  "networkType": "ethereum",
  "devdoc": {
    "kind": "dev",
    "methods": {},
    "version": 1
  },
  "userdoc": {
    "kind": "user",
    "methods": {},
    "version": 1
  }
}